:020000020000FC
:0200000025C019
:0200100027C106
:020024000AC10F
:02003400B4C056
:100040008DC0BF86DBCFE6EDFC87FFE70FEF0DBF6E
:1000500008E00EBF0FEF0AB904B900E00BB905B90B
:1000600000E207B90FE108B91127222733276627D5
:1000700000E000931201009311010093140100931A
:100080001301009300010093010108E000930201B5
:1000900005E00093030100E000931001772700932F
:1000A0000F0104E00093040102E00093050100E069
:1000B000009307010093090101E0009306010093FA
:1000C0000801002704E000930B0102E000930A01FD
:1000D00005E000930C0109E000930D010E948500EA
:1000E0000E948D000E949D000E94A70078940E94AB
:1000F00055030E94CD0200911501013029F40E94A0
:10010000E902002700931501F2CF05E005BD00E0EC
:1001100006BD01E000936E00089500E000938000AA
:1001200005E00093810002EC0093850006EF009348
:10013000840001E000936F00089507E00093B10090
:1001400000E00093B00001E00093700008950FE11B
:1001500000936C0002E00093680008950F930FB7BE
:100160000F9323952D33B9F42227009100010395B5
:100170000A3061F40027009300010091010103950A
:10018000063039F400270093010105C000930001F7
:1001900002C0009301010F910FBF0F911895339585
:1001A0003C33D9F533270091020103950A30E1F57C
:1001B0000027009302010091030103950630B9F571
:1001C00000270093030100910201003031F50091F6
:1001D0000301003011F50091040103950F93009184
:1001E0000501023039F00F910A3009F4002700931D
:1001F000040106C00F910530D1F7002700930401D8
:100200000091050103950330A9F40027009305012F
:100210000093040101E00093150102EC00938500B6
:1002200006EF00938400189500930201F6CF009327
:100230000301F3CF00930501F0CF1F930F930FB786
:100240000F9343954E3139F444277395723319F463
:10025000772701E090270F910FBF0F911F911895FD
:100260000F930FB70F931F932F933F9306B13099BE
:100270000DC010911201153009F44598109112012A
:100280001395163008F0112710931201319906C00A
:10029000109110011A95137010931001329906C035
:1002A000109110011395137010931001339901C030
:1002B0000AD0349901C0BAD03F912F911F910F916C
:1002C0000FBF0F91189520911201223031F0233089
:1002D000D1F1243009F0089573C01091100110304D
:1002E00039F0113071F01230E1F0133019F1089546
:1002F000009105010A950F3F09F402E00093050102
:100300000895009104010A950F3F09F409E0209136
:100310000501223019F4053008F004E000930401CF
:100320000895009103010A950F3F09F405E0009339
:1003300003010895009102010A950F3F09F409E0B5
:1003400000930201089510911001103039F011301E
:1003500071F01230E1F0133019F1089500910701A6
:100360000A950F3F09F403E00093070108950091F7
:1003700006010A950F3F09F409E020910701233097
:1003800019F4013008F000E000930601089500918F
:1003900009010A950F3F09F401E00093090108954E
:1003A000009108010A950F3F09F409E02091090125
:1003B000213019F4023008F001E00093080108959B
:1003C00010911001103039F0113071F01230E1F05D
:1003D000133019F1089500910A010A950F3F09F4AD
:1003E00002E000930A01089500910B010A950F3F66
:1003F00009F409E020910A01223019F4043008F0D0
:1004000003E000930B01089500910C010A950F3F42
:1004100009F405E000930C01089500910D010A957F
:100420000F3F09F409E000930D0108952091120196
:10043000223031F02330D9F1243009F0089576C00C
:1004400010911001103039F0113071F01230E9F0D4
:10045000133021F10895009105010395033008F050
:100460000027009305010895009104010395209150
:100470000501223021F4053028F0002703C00A309E
:1004800008F00027009304010895009103010395EB
:10049000063008F00027009303010895009102013F
:1004A00003950A3008F00027009302010895109187
:1004B0001001103039F0113071F01230E9F01330C2
:1004C00021F10895009107010395043008F00027F9
:1004D00000930701089500910601039520910701FB
:1004E000233021F4023028F0002703C00A3008F03E
:1004F0000027009306010895009109010395023039
:1005000008F0002700930901089500910801039560
:1005100020910901213021F4033028F0002703C085
:100520000A3008F000270093080108951091100187
:10053000103039F0113071F01230E9F0133021F140
:10054000089500910A010395033008F000270093F5
:100550000A01089500910B01039520910A012230B0
:1005600021F4053028F0002703C00A3008F00027E6
:1005700000930B01089500910C010395063008F0DB
:10058000002700930C01089500910D0103950A3096
:1005900008F0002700930D01089500910501809156
:1005A0000A010817A1F40091040180910B010817BA
:1005B00071F40091030180910C01081741F400913E
:1005C000020180910D01081711F4459A01C0459868
:1005D00008950F931F932F933F9300910601039566
:1005E0000A3051F40027109107011395143010F0D0
:1005F000112701E0109307012091090130910801B2
:10060000022F1AE0019F030E002D20910701309167
:100610000601023069F4223041F4393008F020C07C
:100620003F912F911F910F9108952330C8F318C067
:10063000043031F0063021F0093011F00B3041F474
:10064000233019F4313060F30BC0233048F308C075
:10065000233019F4323020F303C0233008F300C0F4
:1006600000270093070101E00093060100910801B3
:1006700003950A3049F400271091090113951230AF
:1006800008F0112710930901009308010091090156
:10069000013031F600910801023010F2002700937A
:1006A000090101E000930801BBCF00911201003065
:1006B00059F0013051F0023059F0033029F1043083
:1006C00031F0053019F0089557C08FC0FFC038C011
:1006D00000911001003041F0013051F0023061F022
:1006E000033071F049C048C07931E9F72B9844C014
:1006F0007931C9F72A9840C07931A9F729983CC0C7
:10070000793189F7289838C000911001003041F004
:10071000013051F0023061F0033071F066C065C005
:100720007931E9F72B9861C07931C9F72A985DC012
:100730007931A9F7299859C0793189F7289855C096
:1007400000911001003041F0013051F0023061F0B1
:10075000033071F0BBC0BAC07931E9F72B98B6C04D
:100760007931C9F72A98B2C07931A9F72998AEC072
:10077000793189F72898AAC000910201102F0E94B0
:100780009E041BB9289A29982A982B982C9A2D9860
:100790000E94A30400910301102F0E949E041BB924
:1007A0002898299A2A982B982C9A2D980E94A3046D
:1007B00000910401102F0E949E041BB928982998CB
:1007C0002A9A2B982C9A2D980E94A3040091050137
:1007D000102F0E949E041BB9289829982A982B9ABA
:1007E0002C9A2D980E94A304089500910801102FBF
:1007F0000E949E041BB9289A29982A982B982D9A12
:100800002C980E94A30400910901102F0E949E04BD
:100810001BB92898299A2A982B982D9A2C980E94CF
:10082000A30400910601102F0E949E041BB9289872
:1008300029982A9A2B982D9A2C980E94A30400910B
:100840000701102F0E949E041BB9289829982A9806
:100850002B9A2D9A2C980E94A304089500910D01C3
:10086000102F0E949E041BB9289A29982A982B9829
:100870002C9A2D9A0E94A30400910C01102F0E9423
:100880009E041BB92898299A2A982B982C9A2D9A5D
:100890000E94A30400910B01102F0E949E041BB91B
:1008A000289829982A9A2B982C9A2D9A0E94A3046A
:1008B00000910A01102F0E949E041BB928982998C4
:1008C0002A982B9A2C9A2D9A0E94A30400910D012C
:1008D000102F0E949E041BB9289A29982A982B98B9
:1008E0002C9A2D9A0E94A30400910C01102F0E94B3
:1008F0009E041BB92898299A2A982B982C9A2D9AED
:100900000E94A30400910B01102F0E949E041BB9AA
:10091000289829982A9A2B982C9A2D9A0E94A304F9
:1009200000910A01102F0E949E041BB92898299853
:100930002A982B9A2C9A2D9A0E94A304F0E0E2E4C4
:10094000E10F149108955FEF5A955030E9F708953B
:00000001FF
