:020000020000FC
:0200000025C019
:0200100022C10B
:02002400FEC01C
:02003400A8C062
:1000400081C0BF86DBCFE6EDFC87FFE70FEF0DBF7A
:1000500008E00EBF0FEF0AB904B900E00BB905B90B
:1000600000E207B90FE108B91127222733276627D5
:1000700000E0009314010093130100931201009318
:100080001501009300010093010109E000930201B2
:1000900000E00093030100E00093100100931101C0
:1000A00000930F0109E00093040101E000930501B2
:1000B00000E0009307010093090101E000930601AD
:1000C00000930801002700930B0100930A0100939D
:1000D0000D0100930D010E9479000E9481000E9491
:1000E00091000E949B0078940E94EF020E94D3022C
:1000F000FBCF05E005BD00E006BD01E000936E000A
:10010000089500E00093800005E00093810002EC78
:100110000093850006EF0093840001E000936F00D8
:10012000089507E00093B10000E00093B00001E003
:100130000093700008950FE100936C0002E00093BB
:10014000680008950F930FB70F9323952D33B9F4DB
:1001500022270091000103950A3061F400270093E3
:100160000001009101010395063039F40027009346
:10017000010105C00093000102C0009301010F912D
:100180000FBF0F91189533953C33C9F53327009174
:10019000020103950A30D1F5002700930201009176
:1001A000030103950630A9F5002700930301009190
:1001B0000201003021F500910301003001F50091AA
:1001C000040103950F9300910501023089F00F910E
:1001D0000A3011F5002700930401009105010395F1
:1001E0000330E9F40027009305010093040107C0E0
:1001F0000F91053089F4002700930401EECF02EC43
:100200000093850006EF0093840018950093020187
:10021000F6CF00930301F3CF00930401F0CF0093D6
:1002200005011F930F930FB70F9310911401123014
:1002300021F0133011F0143049F443954E3131F46C
:100240004427109111011095109311010F910FBFC8
:100250000F911F9118950F930FB70F931F932F9323
:100260003F9306B1309918C010911401153061F414
:10027000459928C04598002700930A0100930B0177
:1002800000930C0100930D01109114011395163089
:1002900008F0112710931401319906C01091100134
:1002A0001A95137010931001329906C01091100125
:1002B0001395137010931001339901C00AD034992B
:1002C00001C0BAD03F912F911F910F910FBF0F9195
:1002D000189520911401223031F02330D1F12430CF
:1002E00009F0089573C010911001103039F01130E9
:1002F00071F01230E1F0133019F108950091050109
:100300000A950F3F09F402E000930501089500915A
:1003100004010A950F3F09F409E0209105012230FC
:1003200019F4043008F004E00093040108950091EA
:1003300003010A950F3F09F405E0009303010895B6
:10034000009102010A950F3F09F409E000930201B0
:10035000089510911001103039F0113071F0123001
:10036000E1F0133019F10895009107010A950F3F4C
:1003700009F403E0009307010895009106010A952E
:100380000F3F09F409E020910701233019F40130EF
:1003900008F000E0009306010895009109010A9514
:1003A0000F3F09F401E0009309010895009108014D
:1003B0000A950F3F09F409E020910901213019F451
:1003C000023008F001E00093080108951091100137
:1003D000103039F0113071F01230E1F0133019F1B2
:1003E000089500910A010A950F3F09F402E0009375
:1003F0000A01089500910B010A950F3F09F409E0E5
:1004000020910A01223019F4043008F003E000932F
:100410000B01089500910C010A950F3F09F405E0C6
:1004200000930C01089500910D010A950F3F09F406
:1004300009E000930D01089520911401223031F05C
:100440002330D9F1243009F0089576C010911001BD
:10045000103039F0113071F01230E9F0133021F121
:100460000895009105010395033008F000270093DB
:1004700005010895009104010395209105012230A2
:1004800021F4053028F0002703C00A3008F00027C7
:10049000009304010895009103010395063008F0CC
:1004A00000270093030108950091020103950A308B
:1004B00008F00027009302010895109110011030F8
:1004C00039F0113071F01230E9F0133021F1089554
:1004D000009107010395043008F0002700930701FD
:1004E000089500910601039520910701233021F41E
:1004F000023028F0002703C00A3008F000270093DC
:1005000006010895009109010395023008F00027C3
:1005100000930901089500910801039520910901B4
:10052000213021F4033028F0002703C00A3008F0FE
:10053000002700930801089510911001103039F040
:10054000113071F01230E9F0133021F1089500916B
:100550000A010395043008F0002700930A0108956A
:1005600000910B01039520910A01223021F40530FE
:1005700028F0002703C00A3008F0002700930B0181
:10058000089500910C010395063008F000270093B0
:100590000C01089500910D0103950A3008F0002721
:1005A00000930D0108950091050180910A01011742
:1005B000A1F40091040180910B01011771F40091E5
:1005C000030180910C01011741F400910201809117
:1005D0000D01011711F4459A01C045980895009145
:1005E0001401003059F0013051F0023059F003305D
:1005F00081F1043031F0053019F0089551C089C0FF
:10060000F9C0C0C000911001003039F0013061F034
:10061000023089F00330B1F043C0709111017030A5
:1006200009F03EC02B983CC070911101703009F068
:1006300037C02A9835C070911101703009F030C070
:1006400029982EC070911101703009F029C02898A6
:1006500027C000911001003039F0013061F0023004
:1006600089F00330B1F055C070911101703009F07C
:1006700050C02B984EC0709111017030D1F349C019
:100680002A9847C0709111017030D1F342C0299867
:1006900040C0709111017030D1F33BC0289839C02F
:1006A00000910201102F0E9432041BB9289A299848
:1006B0002A982B982C9A2D980E94370400910301B8
:1006C000102F0E9432041BB92898299A2A982B9837
:1006D0002C9A2D980E94370400910401102F0E943B
:1006E00032041BB9289829982A9A2B982C9A2D986D
:1006F0000E94370400910501102F0E9432041BB99B
:10070000289829982A982B9A2C9A2D980E94370479
:10071000089500910801102F0E9432041BB9289AF5
:1007200029982A982B982D9A2C980E94370400918A
:100730000901102F0E9432041BB92898299A2A987F
:100740002B982D9A2C980E94370400910601102FA7
:100750000E9432041BB9289829982A9A2B982D9A1E
:100760002C980E94370400910701102F0E94320438
:100770001BB9289829982A982B9A2D9A2C980E9470
:100780003704089500910D01102F0E9432041BB907
:10079000289A29982A982B982C9A2D9A0E943704E7
:1007A00000910C01102F0E9432041BB92898299A3D
:1007B0002A982B982C9A2D9A0E94370400910B01AD
:1007C000102F0E9432041BB9289829982A9A2B9836
:1007D0002C9A2D9A0E94370400910A01102F0E9432
:1007E00032041BB9289829982A982B9A2C9A2D9A6A
:1007F0000E94370400910D01102F0E9432041BB992
:10080000289A29982A982B982C9A2D9A0E94370476
:1008100000910C01102F0E9432041BB92898299ACC
:100820002A982B982C9A2D9A0E94370400910B013C
:10083000102F0E9432041BB9289829982A9A2B98C5
:100840002C9A2D9A0E94370400910A01102F0E94C1
:1008500032041BB9289829982A982B9A2C9A2D9AF9
:100860000E943704F0E0E2E4E10F149108955FEF95
:080870005A955030E9F7089594
:00000001FF
